{
  "contractName": "Voting",
  "abi": [
    {
      "inputs": [],
      "stateMutability": "nonpayable",
      "type": "constructor"
    },
    {
      "anonymous": false,
      "inputs": [
        {
          "indexed": true,
          "internalType": "uint256",
          "name": "proposalId",
          "type": "uint256"
        },
        {
          "indexed": false,
          "internalType": "string",
          "name": "description",
          "type": "string"
        }
      ],
      "name": "ProposalCreated",
      "type": "event"
    },
    {
      "anonymous": false,
      "inputs": [
        {
          "indexed": true,
          "internalType": "uint256",
          "name": "proposalId",
          "type": "uint256"
        },
        {
          "indexed": true,
          "internalType": "address",
          "name": "voter",
          "type": "address"
        }
      ],
      "name": "Voted",
      "type": "event"
    },
    {
      "inputs": [],
      "name": "owner",
      "outputs": [
        {
          "internalType": "address",
          "name": "",
          "type": "address"
        }
      ],
      "stateMutability": "view",
      "type": "function",
      "constant": true
    },
    {
      "inputs": [
        {
          "internalType": "uint256",
          "name": "",
          "type": "uint256"
        }
      ],
      "name": "proposals",
      "outputs": [
        {
          "internalType": "uint256",
          "name": "id",
          "type": "uint256"
        },
        {
          "internalType": "string",
          "name": "description",
          "type": "string"
        },
        {
          "internalType": "uint256",
          "name": "voteCount",
          "type": "uint256"
        }
      ],
      "stateMutability": "view",
      "type": "function",
      "constant": true
    },
    {
      "inputs": [],
      "name": "proposalsCount",
      "outputs": [
        {
          "internalType": "uint256",
          "name": "",
          "type": "uint256"
        }
      ],
      "stateMutability": "view",
      "type": "function",
      "constant": true
    },
    {
      "inputs": [
        {
          "internalType": "address",
          "name": "",
          "type": "address"
        }
      ],
      "name": "voters",
      "outputs": [
        {
          "internalType": "bool",
          "name": "",
          "type": "bool"
        }
      ],
      "stateMutability": "view",
      "type": "function",
      "constant": true
    },
    {
      "inputs": [
        {
          "internalType": "string",
          "name": "_description",
          "type": "string"
        }
      ],
      "name": "addProposal",
      "outputs": [],
      "stateMutability": "nonpayable",
      "type": "function"
    },
    {
      "inputs": [
        {
          "internalType": "uint256",
          "name": "_proposalId",
          "type": "uint256"
        }
      ],
      "name": "vote",
      "outputs": [],
      "stateMutability": "nonpayable",
      "type": "function"
    },
    {
      "inputs": [
        {
          "internalType": "uint256",
          "name": "_proposalId",
          "type": "uint256"
        }
      ],
      "name": "getProposal",
      "outputs": [
        {
          "components": [
            {
              "internalType": "uint256",
              "name": "id",
              "type": "uint256"
            },
            {
              "internalType": "string",
              "name": "description",
              "type": "string"
            },
            {
              "internalType": "uint256",
              "name": "voteCount",
              "type": "uint256"
            }
          ],
          "internalType": "struct Voting.Proposal",
          "name": "",
          "type": "tuple"
        }
      ],
      "stateMutability": "view",
      "type": "function",
      "constant": true
    }
  ],
  "bytecode": "0x608060405234801561001057600080fd5b50336000806101000a81548173ffffffffffffffffffffffffffffffffffffffff021916908373ffffffffffffffffffffffffffffffffffffffff160217905550611070806100606000396000f3fe608060405234801561001057600080fd5b506004361061007d5760003560e01c80632fdae3c51161005b5780632fdae3c5146100ee5780638da5cb5b1461010a578063a3ec138d14610128578063c7f758a8146101585761007d565b80630121b93f14610082578063013cf08b1461009e5780630a9f46ad146100d0575b600080fd5b61009c60048036038101906100979190610700565b610188565b005b6100b860048036038101906100b39190610700565b610332565b6040516100c7939291906107cc565b60405180910390f35b6100d86103e4565b6040516100e5919061080a565b60405180910390f35b6101086004803603810190610103919061095a565b6103ea565b005b61011261052d565b60405161011f91906109e4565b60405180910390f35b610142600480360381019061013d9190610a2b565b610551565b60405161014f9190610a73565b60405180910390f35b610172600480360381019061016d9190610700565b610571565b60405161017f9190610b37565b60405180910390f35b33600160008273ffffffffffffffffffffffffffffffffffffffff1673ffffffffffffffffffffffffffffffffffffffff16815260200190815260200160002060009054906101000a900460ff1615610216576040517f08c379a000000000000000000000000000000000000000000000000000000000815260040161020d90610ba5565b60405180910390fd5b60008211801561022857506003548211155b610267576040517f08c379a000000000000000000000000000000000000000000000000000000000815260040161025e90610c11565b60405180910390fd5b60018060003373ffffffffffffffffffffffffffffffffffffffff1673ffffffffffffffffffffffffffffffffffffffff16815260200190815260200160002060006101000a81548160ff0219169083151502179055506002600083815260200190815260200160002060020160008154809291906102e590610c60565b91905055503373ffffffffffffffffffffffffffffffffffffffff16827f030b0f8dcd86a031eddb071f91882edeac8173663ba775713b677b42b51be44b60405160405180910390a35050565b600260205280600052604060002060009150905080600001549080600101805461035b90610cd7565b80601f016020809104026020016040519081016040528092919081815260200182805461038790610cd7565b80156103d45780601f106103a9576101008083540402835291602001916103d4565b820191906000526020600020905b8154815290600101906020018083116103b757829003601f168201915b5050505050908060020154905083565b60035481565b60008054906101000a900473ffffffffffffffffffffffffffffffffffffffff1673ffffffffffffffffffffffffffffffffffffffff163373ffffffffffffffffffffffffffffffffffffffff1614610478576040517f08c379a000000000000000000000000000000000000000000000000000000000815260040161046f90610d7a565b60405180910390fd5b6003600081548092919061048b90610c60565b91905055506040518060600160405280600354815260200182815260200160008152506002600060035481526020019081526020016000206000820151816000015560208201518160010190816104e29190610f46565b50604082015181600201559050506003547f9c770c289ab5bf7e57cb1d23c8ceae993aea46eb64847072fd3d78ca60d3e432826040516105229190611018565b60405180910390a250565b60008054906101000a900473ffffffffffffffffffffffffffffffffffffffff1681565b60016020528060005260406000206000915054906101000a900460ff1681565b610579610695565b60008211801561058b57506003548211155b6105ca576040517f08c379a00000000000000000000000000000000000000000000000000000000081526004016105c190610c11565b60405180910390fd5b600260008381526020019081526020016000206040518060600160405290816000820154815260200160018201805461060290610cd7565b80601f016020809104026020016040519081016040528092919081815260200182805461062e90610cd7565b801561067b5780601f106106505761010080835404028352916020019161067b565b820191906000526020600020905b81548152906001019060200180831161065e57829003601f168201915b505050505081526020016002820154815250509050919050565b60405180606001604052806000815260200160608152602001600081525090565b6000604051905090565b600080fd5b600080fd5b6000819050919050565b6106dd816106ca565b81146106e857600080fd5b50565b6000813590506106fa816106d4565b92915050565b600060208284031215610716576107156106c0565b5b6000610724848285016106eb565b91505092915050565b610736816106ca565b82525050565b600081519050919050565b600082825260208201905092915050565b60005b8381101561077657808201518184015260208101905061075b565b60008484015250505050565b6000601f19601f8301169050919050565b600061079e8261073c565b6107a88185610747565b93506107b8818560208601610758565b6107c181610782565b840191505092915050565b60006060820190506107e1600083018661072d565b81810360208301526107f38185610793565b9050610802604083018461072d565b949350505050565b600060208201905061081f600083018461072d565b92915050565b600080fd5b600080fd5b7f4e487b7100000000000000000000000000000000000000000000000000000000600052604160045260246000fd5b61086782610782565b810181811067ffffffffffffffff821117156108865761088561082f565b5b80604052505050565b60006108996106b6565b90506108a5828261085e565b919050565b600067ffffffffffffffff8211156108c5576108c461082f565b5b6108ce82610782565b9050602081019050919050565b82818337600083830152505050565b60006108fd6108f8846108aa565b61088f565b9050828152602081018484840111156109195761091861082a565b5b6109248482856108db565b509392505050565b600082601f83011261094157610940610825565b5b81356109518482602086016108ea565b91505092915050565b6000602082840312156109705761096f6106c0565b5b600082013567ffffffffffffffff81111561098e5761098d6106c5565b5b61099a8482850161092c565b91505092915050565b600073ffffffffffffffffffffffffffffffffffffffff82169050919050565b60006109ce826109a3565b9050919050565b6109de816109c3565b82525050565b60006020820190506109f960008301846109d5565b92915050565b610a08816109c3565b8114610a1357600080fd5b50565b600081359050610a25816109ff565b92915050565b600060208284031215610a4157610a406106c0565b5b6000610a4f84828501610a16565b91505092915050565b60008115159050919050565b610a6d81610a58565b82525050565b6000602082019050610a886000830184610a64565b92915050565b610a97816106ca565b82525050565b600082825260208201905092915050565b6000610ab98261073c565b610ac38185610a9d565b9350610ad3818560208601610758565b610adc81610782565b840191505092915050565b6000606083016000830151610aff6000860182610a8e565b5060208301518482036020860152610b178282610aae565b9150506040830151610b2c6040860182610a8e565b508091505092915050565b60006020820190508181036000830152610b518184610ae7565b905092915050565b7f416c726561647920766f74656400000000000000000000000000000000000000600082015250565b6000610b8f600d83610747565b9150610b9a82610b59565b602082019050919050565b60006020820190508181036000830152610bbe81610b82565b9050919050565b7f496e76616c69642070726f706f73616c20494400000000000000000000000000600082015250565b6000610bfb601383610747565b9150610c0682610bc5565b602082019050919050565b60006020820190508181036000830152610c2a81610bee565b9050919050565b7f4e487b7100000000000000000000000000000000000000000000000000000000600052601160045260246000fd5b6000610c6b826106ca565b91507fffffffffffffffffffffffffffffffffffffffffffffffffffffffffffffffff8203610c9d57610c9c610c31565b5b600182019050919050565b7f4e487b7100000000000000000000000000000000000000000000000000000000600052602260045260246000fd5b60006002820490506001821680610cef57607f821691505b602082108103610d0257610d01610ca8565b5b50919050565b7f4f6e6c79206f776e65722063616e2063616c6c20746869732066756e6374696f60008201527f6e00000000000000000000000000000000000000000000000000000000000000602082015250565b6000610d64602183610747565b9150610d6f82610d08565b604082019050919050565b60006020820190508181036000830152610d9381610d57565b9050919050565b60008190508160005260206000209050919050565b60006020601f8301049050919050565b600082821b905092915050565b600060088302610dfc7fffffffffffffffffffffffffffffffffffffffffffffffffffffffffffffffff82610dbf565b610e068683610dbf565b95508019841693508086168417925050509392505050565b6000819050919050565b6000610e43610e3e610e39846106ca565b610e1e565b6106ca565b9050919050565b6000819050919050565b610e5d83610e28565b610e71610e6982610e4a565b848454610dcc565b825550505050565b600090565b610e86610e79565b610e91818484610e54565b505050565b5b81811015610eb557610eaa600082610e7e565b600181019050610e97565b5050565b601f821115610efa57610ecb81610d9a565b610ed484610daf565b81016020851015610ee3578190505b610ef7610eef85610daf565b830182610e96565b50505b505050565b600082821c905092915050565b6000610f1d60001984600802610eff565b1980831691505092915050565b6000610f368383610f0c565b9150826002028217905092915050565b610f4f8261073c565b67ffffffffffffffff811115610f6857610f6761082f565b5b610f728254610cd7565b610f7d828285610eb9565b600060209050601f831160018114610fb05760008415610f9e578287015190505b610fa88582610f2a565b865550611010565b601f198416610fbe86610d9a565b60005b82811015610fe657848901518255600182019150602085019450602081019050610fc1565b868310156110035784890151610fff601f891682610f0c565b8355505b6001600288020188555050505b505050505050565b600060208201905081810360008301526110328184610793565b90509291505056fea26469706673582212201ae70eabbc67f7d16533db6a6ebb729f0ff89774fbf1ec095e187e980e385a9764736f6c63430008130033",
  "immutableReferences": {},
  "source": "pragma solidity ^0.8.19;\r\n\r\ncontract Voting {\r\n    struct Proposal {\r\n        uint id;\r\n        string description;\r\n        uint voteCount;\r\n    }\r\n\r\n    address public owner;\r\n    mapping(address => bool) public voters;\r\n    mapping(uint => Proposal) public proposals;\r\n    uint public proposalsCount;\r\n\r\n    event ProposalCreated(uint indexed proposalId, string description);\r\n    event Voted(uint indexed proposalId, address indexed voter);\r\n\r\n    modifier onlyOwner() {\r\n        require(msg.sender == owner, \"Only owner can call this function\");\r\n        _;\r\n    }\r\n\r\n    modifier notVoted(address _voter) {\r\n        require(!voters[_voter], \"Already voted\");\r\n        _;\r\n    }\r\n\r\n    constructor() {\r\n        owner = msg.sender;\r\n    }\r\n\r\n    function addProposal(string memory _description) public onlyOwner {\r\n        proposalsCount++;\r\n        proposals[proposalsCount] = Proposal(proposalsCount, _description, 0);\r\n        emit ProposalCreated(proposalsCount, _description);\r\n    }\r\n\r\n    function vote(uint _proposalId) public notVoted(msg.sender) {\r\n        require(_proposalId > 0 && _proposalId <= proposalsCount, \"Invalid proposal ID\");\r\n\r\n        voters[msg.sender] = true;\r\n        proposals[_proposalId].voteCount++;\r\n\r\n        emit Voted(_proposalId, msg.sender);\r\n    }\r\n\r\n    function getProposal(uint _proposalId) public view returns (Proposal memory) {\r\n        require(_proposalId > 0 && _proposalId <= proposalsCount, \"Invalid proposal ID\");\r\n        return proposals[_proposalId];\r\n    }\r\n}\r\n",
  "sourcePath": "C:\\Users\\worth\\IdeaProjects\\Voting DApp\\contracts\\Voting.sol",
  "compiler": {
    "name": "solc",
    "version": "0.8.19+commit.7dd6d404.Emscripten.clang"
  },
  "schemaVersion": "3.4.13",
  "updatedAt": "2023-04-24T20:29:19.346Z",
  "networkType": "ethereum",
  "devdoc": {
    "kind": "dev",
    "methods": {},
    "version": 1
  },
  "userdoc": {
    "kind": "user",
    "methods": {},
    "version": 1
  }
}